{
  "contractName": "Daugiacontract",
  "abi": [
    {
      "inputs": [
        {
          "internalType": "uint256",
          "name": "_biddingtime",
          "type": "uint256"
        },
        {
          "internalType": "address payable",
          "name": "_beneficiary",
          "type": "address"
        }
      ],
      "stateMutability": "nonpayable",
      "type": "constructor"
    },
    {
      "anonymous": false,
      "inputs": [
        {
          "indexed": false,
          "internalType": "address",
          "name": "winner",
          "type": "address"
        },
        {
          "indexed": false,
          "internalType": "uint256",
          "name": "bid",
          "type": "uint256"
        }
      ],
      "name": "sessionWinner",
      "type": "event"
    },
    {
      "anonymous": false,
      "inputs": [
        {
          "indexed": false,
          "internalType": "address",
          "name": "bidder",
          "type": "address"
        },
        {
          "indexed": false,
          "internalType": "uint256",
          "name": "bid",
          "type": "uint256"
        }
      ],
      "name": "updateHighestBid",
      "type": "event"
    },
    {
      "inputs": [],
      "name": "beneficiary",
      "outputs": [
        {
          "internalType": "address payable",
          "name": "",
          "type": "address"
        }
      ],
      "stateMutability": "view",
      "type": "function"
    },
    {
      "inputs": [],
      "name": "endtime",
      "outputs": [
        {
          "internalType": "uint256",
          "name": "",
          "type": "uint256"
        }
      ],
      "stateMutability": "view",
      "type": "function"
    },
    {
      "inputs": [],
      "name": "highestBid",
      "outputs": [
        {
          "internalType": "uint256",
          "name": "",
          "type": "uint256"
        }
      ],
      "stateMutability": "view",
      "type": "function"
    },
    {
      "inputs": [],
      "name": "highestBidder",
      "outputs": [
        {
          "internalType": "address",
          "name": "",
          "type": "address"
        }
      ],
      "stateMutability": "view",
      "type": "function"
    },
    {
      "inputs": [
        {
          "internalType": "address",
          "name": "",
          "type": "address"
        }
      ],
      "name": "pendingReturns",
      "outputs": [
        {
          "internalType": "uint256",
          "name": "",
          "type": "uint256"
        }
      ],
      "stateMutability": "view",
      "type": "function"
    },
    {
      "inputs": [],
      "name": "bid",
      "outputs": [],
      "stateMutability": "payable",
      "type": "function"
    },
    {
      "inputs": [],
      "name": "withdraw",
      "outputs": [
        {
          "internalType": "bool",
          "name": "",
          "type": "bool"
        }
      ],
      "stateMutability": "nonpayable",
      "type": "function"
    },
    {
      "inputs": [],
      "name": "sessionEnd",
      "outputs": [],
      "stateMutability": "nonpayable",
      "type": "function"
    }
  ],
  "bytecode": "0x60806040525f600360146101000a81548160ff0219169083151502179055503480156200002a575f80fd5b5060405162000c2338038062000c23833981810160405281019062000050919062000148565b805f806101000a81548173ffffffffffffffffffffffffffffffffffffffff021916908373ffffffffffffffffffffffffffffffffffffffff16021790555081426200009d9190620001ba565b6001819055505050620001f4565b5f80fd5b5f819050919050565b620000c381620000af565b8114620000ce575f80fd5b50565b5f81519050620000e181620000b8565b92915050565b5f73ffffffffffffffffffffffffffffffffffffffff82169050919050565b5f6200011282620000e7565b9050919050565b620001248162000106565b81146200012f575f80fd5b50565b5f81519050620001428162000119565b92915050565b5f8060408385031215620001615762000160620000ab565b5b5f6200017085828601620000d1565b9250506020620001838582860162000132565b9150509250929050565b7f4e487b71000000000000000000000000000000000000000000000000000000005f52601160045260245ffd5b5f620001c682620000af565b9150620001d383620000af565b9250828201905080821115620001ee57620001ed6200018d565b5b92915050565b610a2180620002025f395ff3fe60806040526004361061007a575f3560e01c80633ccfd60b1161004d5780633ccfd60b146101185780636ca9ec471461014257806391f9015714610158578063d57bde79146101825761007a565b80631998aeef1461007e57806326b387bb146100885780632ca126f8146100c457806338af3eed146100ee575b5f80fd5b6100866101ac565b005b348015610093575f80fd5b506100ae60048036038101906100a99190610706565b6103b3565b6040516100bb9190610749565b60405180910390f35b3480156100cf575f80fd5b506100d86103c8565b6040516100e59190610749565b60405180910390f35b3480156100f9575f80fd5b506101026103ce565b60405161010f9190610782565b60405180910390f35b348015610123575f80fd5b5061012c6103f1565b60405161013991906107b5565b60405180910390f35b34801561014d575f80fd5b5061015661050a565b005b348015610163575f80fd5b5061016c61067d565b60405161017991906107dd565b60405180910390f35b34801561018d575f80fd5b506101966106a2565b6040516101a39190610749565b60405180910390f35b6001544211156101f1576040517f08c379a00000000000000000000000000000000000000000000000000000000081526004016101e890610850565b60405180910390fd5b600254341015610236576040517f08c379a000000000000000000000000000000000000000000000000000000000815260040161022d906108de565b60405180910390fd5b5f6002541461030e5760025460045f60035f9054906101000a900473ffffffffffffffffffffffffffffffffffffffff1673ffffffffffffffffffffffffffffffffffffffff1673ffffffffffffffffffffffffffffffffffffffff1681526020019081526020015f20546102ab9190610929565b60045f60035f9054906101000a900473ffffffffffffffffffffffffffffffffffffffff1673ffffffffffffffffffffffffffffffffffffffff1673ffffffffffffffffffffffffffffffffffffffff1681526020019081526020015f20819055505b3360035f6101000a81548173ffffffffffffffffffffffffffffffffffffffff021916908373ffffffffffffffffffffffffffffffffffffffff160217905550346002819055507f21499369afcf3f472eb9d9b90e70c8ae329fad4ebf9ec9b77a725e9be8c011a260035f9054906101000a900473ffffffffffffffffffffffffffffffffffffffff166002546040516103a992919061095c565b60405180910390a1565b6004602052805f5260405f205f915090505481565b60015481565b5f8054906101000a900473ffffffffffffffffffffffffffffffffffffffff1681565b5f8060045f3373ffffffffffffffffffffffffffffffffffffffff1673ffffffffffffffffffffffffffffffffffffffff1681526020019081526020015f205490505f811115610501575f60045f3373ffffffffffffffffffffffffffffffffffffffff1673ffffffffffffffffffffffffffffffffffffffff1681526020019081526020015f20819055503373ffffffffffffffffffffffffffffffffffffffff166108fc8290811502906040515f60405180830381858888f19350505050610500578060045f3373ffffffffffffffffffffffffffffffffffffffff1673ffffffffffffffffffffffffffffffffffffffff1681526020019081526020015f20819055505f915050610507565b5b60019150505b90565b600360149054906101000a900460ff161561055a576040517f08c379a0000000000000000000000000000000000000000000000000000000008152600401610551906109cd565b60405180910390fd5b60015442101561059f576040517f08c379a0000000000000000000000000000000000000000000000000000000008152600401610596906109cd565b60405180910390fd5b6001600360146101000a81548160ff0219169083151502179055507f835d9fc8de16c7933ea69c9f9ea88351b3f9543ac2a209133a4b536537b896f160035f9054906101000a900473ffffffffffffffffffffffffffffffffffffffff1660025460405161060e92919061095c565b60405180910390a15f8054906101000a900473ffffffffffffffffffffffffffffffffffffffff1673ffffffffffffffffffffffffffffffffffffffff166108fc60025490811502906040515f60405180830381858888f1935050505015801561067a573d5f803e3d5ffd5b50565b60035f9054906101000a900473ffffffffffffffffffffffffffffffffffffffff1681565b60025481565b5f80fd5b5f73ffffffffffffffffffffffffffffffffffffffff82169050919050565b5f6106d5826106ac565b9050919050565b6106e5816106cb565b81146106ef575f80fd5b50565b5f81359050610700816106dc565b92915050565b5f6020828403121561071b5761071a6106a8565b5b5f610728848285016106f2565b91505092915050565b5f819050919050565b61074381610731565b82525050565b5f60208201905061075c5f83018461073a565b92915050565b5f61076c826106ac565b9050919050565b61077c81610762565b82525050565b5f6020820190506107955f830184610773565b92915050565b5f8115159050919050565b6107af8161079b565b82525050565b5f6020820190506107c85f8301846107a6565b92915050565b6107d7816106cb565b82525050565b5f6020820190506107f05f8301846107ce565b92915050565b5f82825260208201905092915050565b7f706869656e206461206b657420746875630000000000000000000000000000005f82015250565b5f61083a6011836107f6565b915061084582610806565b602082019050919050565b5f6020820190508181035f8301526108678161082e565b9050919050565b7f476961206375612062616e207468617020686f6e20676961206869656e2074615f8201527f6900000000000000000000000000000000000000000000000000000000000000602082015250565b5f6108c86021836107f6565b91506108d38261086e565b604082019050919050565b5f6020820190508181035f8301526108f5816108bc565b9050919050565b7f4e487b71000000000000000000000000000000000000000000000000000000005f52601160045260245ffd5b5f61093382610731565b915061093e83610731565b9250828201905080821115610956576109556108fc565b5b92915050565b5f60408201905061096f5f8301856107ce565b61097c602083018461073a565b9392505050565b7f506869656e206461206b657420746875630000000000000000000000000000005f82015250565b5f6109b76011836107f6565b91506109c282610983565b602082019050919050565b5f6020820190508181035f8301526109e4816109ab565b905091905056fea2646970667358221220284b89441799dcd2791522a5053c011eceaeea4a7c97d9b7f96cc1093870daac64736f6c63430008150033",
  "immutableReferences": {},
  "source": "// SPDX-License-Identifier: MIT\r\npragma solidity >=0.7.0 <0.9.0;\r\n\r\ncontract Daugiacontract {\r\n\r\n    address payable public beneficiary;\r\n    uint public endtime;\r\n    uint public highestBid;\r\n    address public highestBidder;\r\n    bool ended= false;\r\n\r\n    mapping(address=> uint) public pendingReturns;\r\n\r\n    event updateHighestBid(address bidder , uint bid);\r\n    event sessionWinner(address winner, uint bid);\r\n\r\n    constructor (uint _biddingtime, address payable _beneficiary){\r\n        beneficiary= _beneficiary;\r\n        endtime= block.timestamp + _biddingtime;\r\n    }\r\n\r\n    function bid() public payable{\r\n        if(block.timestamp> endtime){\r\n            revert(\"phien da ket thuc\");\r\n        }\r\n        if(msg.value < highestBid){\r\n            revert(\"Gia cua ban thap hon gia hien tai\");\r\n        }\r\n        if(highestBid !=0){\r\n            pendingReturns[highestBidder] = pendingReturns[highestBidder] + highestBid;\r\n        }\r\n        highestBidder=msg.sender;\r\n        highestBid=msg.value;\r\n        emit updateHighestBid(highestBidder, highestBid);\r\n    }\r\n\r\n    function withdraw() public returns(bool){\r\n        uint amount = pendingReturns[msg.sender];\r\n        if(amount >0){\r\n            pendingReturns[msg.sender]=0;\r\n            if(!payable(msg.sender).send(amount)){\r\n                pendingReturns[msg.sender]=amount;\r\n                return false;\r\n            }\r\n        }\r\n        return true;\r\n    }\r\n\r\n    function sessionEnd() public {\r\n        if(ended){\r\n            revert(\"Phien da ket thuc\");\r\n        }\r\n        if(block.timestamp < endtime){\r\n            revert(\"Phien da ket thuc\");\r\n        }\r\n        ended = true;\r\n        emit sessionWinner(highestBidder, highestBid);\r\n        beneficiary.transfer(highestBid);\r\n    }\r\n\r\n}",
  "sourcePath": "C:\\Luan\\w3\\w3node\\contracts\\Daugiacontract.sol",
  "compiler": {
    "name": "solc",
    "version": "0.8.21+commit.d9974bed.Emscripten.clang"
  },
  "schemaVersion": "3.4.16",
  "updatedAt": "2024-03-14T01:43:53.384Z",
  "devdoc": {
    "kind": "dev",
    "methods": {},
    "version": 1
  },
  "userdoc": {
    "kind": "user",
    "methods": {},
    "version": 1
  }
}